:020000040000fa
:080000000002040000000000f2
:020000040000fa
:04000800b804000038
:020000040000fa
:04000c001e040000ce
:020000040000fa
:040010003e040000aa
:020000040000fa
:04001400f8040000ec
:020000040000fa
:04001800d804000008
:020000040000fa
:04001c00600500007b
:020000040000fa
:040020005e0400007a
:020000040000fa
:040024006005000073
:020000040000fa
:04002800600500006f
:020000040000fa
:04002c00400500008b
:020000040000fa
:040030006005000067
:020000040000fa
:040034006005000063
:020000040000fa
:04003800600500005f
:020000040000fa
:04003c00600500005b
:020000040000fa
:040040006005000057
:020000040000fa
:040044006005000053
:020000040000fa
:04004800600500004f
:020000040000fa
:04004c00600500004b
:020000040000fa
:040050006005000047
:020000040000fa
:040054006005000043
:020000040000fa
:04005800600500003f
:020000040000fa
:04005c00600500003b
:020000040000fa
:040060006005000037
:020000040000fa
:040064006005000033
:020000040000fa
:04006800600500002f
:020000040000fa
:04006c00600500002b
:020000040000fa
:040070006005000027
:020000040000fa
:040074006005000023
:020000040000fa
:04007800600500001f
:020000040000fa
:04007c00600500001b
:020000040000fa
:040080006005000017
:020000040000fa
:040084006005000013
:020000040000fa
:04008800600500000f
:020000040000fa
:04008c00600500000b
:020000040000fa
:040090006005000007
:020000040000fa
:040094006005000003
:020000040000fa
:0400980060050000ff
:020000040000fa
:04009c0060050000fb
:020000040000fa
:0400a00060050000f7
:020000040000fa
:0400a40060050000f3
:020000040000fa
:0400a80060050000ef
:020000040000fa
:0400ac0060050000eb
:020000040000fa
:0400b00060050000e7
:020000040000fa
:0400b40060050000e3
:020000040000fa
:0400b80060050000df
:020000040000fa
:0400bc0060050000db
:020000040000fa
:0400c0009e0300009b
:020000040000fa
:0400c40060050000d3
:020000040000fa
:0400c80060050000cf
:020000040000fa
:0400cc0060050000cb
:020000040000fa
:0400d00060050000c7
:020000040000fa
:0400d40060050000c3
:020000040000fa
:0400d80060050000bf
:020000040000fa
:0400dc001a05000001
:020000040000fa
:0400e00060050000b7
:020000040000fa
:0400e40060050000b3
:020000040000fa
:0400e80060050000af
:020000040000fa
:0400ec0060050000ab
:020000040000fa
:0400f00060050000a7
:020000040000fa
:0400f40060050000a3
:020000040000fa
:0400f800600500009f
:020000040000fa
:0400fc00600500009b
:020000040000fa
:040100006005000096
:020000040000fa
:040104006005000092
:020000040000fa
:04010800600500008e
:020000040000fa
:04010c00600500008a
:020000040000fa
:040110006005000086
:020000040000fa
:040114006005000082
:020000040000fa
:04011800600500007e
:020000040000fa
:04011c00600500007a
:020000040000fa
:040120006005000076
:020000040000fa
:040124006005000072
:020000040000fa
:04012800600500006e
:020000040000fa
:04012c00de030000ee
:020000040000fa
:040130006005000066
:020000040000fa
:040134006005000062
:020000040000fa
:04013800600500005e
:020000040000fa
:04013c00600500005a
:020000040000fa
:040140006005000056
:020000040000fa
:040144006005000052
:020000040000fa
:04014800600500004e
:020000040000fa
:04014c00600500004a
:020000040000fa
:040150006005000046
:020000040000fa
:040154006005000042
:020000040000fa
:04015800600500003e
:020000040000fa
:04015c00600500003a
:020000040000fa
:040160006005000036
:020000040000fa
:040164006005000032
:020000040000fa
:04016800600500002e
:020000040000fa
:04016c00600500002a
:020000040000fa
:040170006005000026
:020000040000fa
:040174006005000022
:020000040000fa
:04017800600500001e
:020000040000fa
:04017c00600500001a
:020000040000fa
:040180006005000016
:020000040000fa
:040184006005000012
:020000040000fa
:04018800600500000e
:020000040000fa
:04018c00600500000a
:020000040000fa
:040190006005000006
:020000040000fa
:040194006005000002
:020000040000fa
:0401980060050000fe
:020000040000fa
:04019c0060050000fa
:020000040000fa
:0401a00060050000f6
:020000040000fa
:0401a40060050000f2
:020000040000fa
:0401a80060050000ee
:020000040000fa
:0401ac0060050000ea
:020000040000fa
:0401b00060050000e6
:020000040000fa
:0401b40060050000e2
:020000040000fa
:0401b80060050000de
:020000040000fa
:0401bc0060050000da
:020000040000fa
:0401c00060050000d6
:020000040000fa
:0401c40060050000d2
:020000040000fa
:0401c80060050000ce
:020000040000fa
:0401cc0060050000ca
:020000040000fa
:0401d00060050000c6
:020000040000fa
:0401d40060050000c2
:020000040000fa
:0401d80060050000be
:020000040000fa
:0401dc0060050000ba
:020000040000fa
:0401e00060050000b6
:020000040000fa
:0401e40060050000b2
:020000040000fa
:0401e80060050000ae
:020000040000fa
:0401ec0060050000aa
:020000040000fa
:0401f00060050000a6
:020000040000fa
:0401f40060050000a2
:020000040000fa
:0401f800600500009e
:020000040000fa
:0401fc00600500009a
:020000040000fa
:040200006005000095
:020000040000fa
:040204006005000091
:020000040000fa
:04020800600500008d
:020000040000fa
:04020c006005000089
:020000040000fa
:040210006005000085
:020000040000fa
:040214006005000081
:020000040000fa
:04021800600500007d
:020000040000fa
:04021c006005000079
:020000040000fa
:040220006005000075
:020000040000fa
:040224006005000071
:020000040000fa
:04022800600500006d
:020000040000fa
:04022c006005000069
:020000040000fa
:040230006005000065
:020000040000fa
:040234006005000061
:020000040000fa
:04023800600500005d
:020000040000fa
:04023c006005000059
:020000040000fa
:040240006005000055
:020000040000fa
:040244006005000051
:020000040000fa
:04024800600500004d
:020000040000fa
:04024c006005000049
:020000040000fa
:040250006005000045
:020000040000fa
:040254006005000041
:020000040000fa
:04025800600500003d
:020000040000fa
:04025c006005000039
:020000040000fa
:040260006005000035
:020000040000fa
:040264006005000031
:020000040000fa
:04026800600500002d
:020000040000fa
:04026c006005000029
:020000040000fa
:040270006005000025
:020000040000fa
:040274006005000021
:020000040000fa
:04027800600500001d
:020000040000fa
:04027c006005000019
:020000040000fa
:040280006005000015
:020000040000fa
:040284006005000011
:020000040000fa
:04028800600500000d
:020000040000fa
:04028c006005000009
:020000040000fa
:040290006005000005
:020000040000fa
:040294006005000001
:020000040000fa
:0402980060050000fd
:020000040000fa
:04029c0060050000f9
:020000040000fa
:0402a00060050000f5
:020000040000fa
:0402a40060050000f1
:020000040000fa
:0402a80060050000ed
:020000040000fa
:0402ac0060050000e9
:020000040000fa
:0402b00060050000e5
:020000040000fa
:0402b40060050000e1
:020000040000fa
:0402b80060050000dd
:020000040000fa
:0402bc0060050000d9
:020000040000fa
:0402c00060050000d5
:020000040000fa
:0402c40060050000d1
:020000040000fa
:0402c80060050000cd
:020000040000fa
:0402cc0060050000c9
:020000040000fa
:0402d00060050000c5
:020000040000fa
:0402d40060050000c1
:020000040000fa
:0402d80060050000bd
:020000040000fa
:0402dc0060050000b9
:020000040000fa
:0402e00060050000b5
:020000040000fa
:0402e40060050000b1
:020000040000fa
:0402e80060050000ad
:020000040000fa
:0402ec0060050000a9
:020000040000fa
:0402f00060050000a5
:020000040000fa
:0402f40060050000a1
:020000040000fa
:0402f800600500009d
:020000040000fa
:0402fc006005000099
:020000040000fa
:040300006005000094
:020000040000fa
:040304006005000090
:020000040000fa
:04030800600500008c
:020000040000fa
:04030c006005000088
:020000040000fa
:040310006005000084
:020000040000fa
:040314006005000080
:020000040000fa
:04031800600500007c
:020000040000fa
:04031c006005000078
:020000040000fa
:040320006005000074
:020000040000fa
:040324006005000070
:020000040000fa
:04032800600500006c
:020000040000fa
:04032c006005000068
:020000040000fa
:040330006005000064
:020000040000fa
:040334006005000060
:020000040000fa
:100400004f3021000eff26000e0188000000000082
:10041000000020000000e000020032000001200087
:100420002002880014000700f20107000000e0002d
:1004300003003a0080e222000100200002003700a1
:100440000000200001002000810f70000100320038
:100450000f000700000020000000e0000200320052
:1004600000000200000000008a35020000000000c9
:100470000040da000000fe00201a20000000e0002a
:1004800002003200002020009001880000000600d9
:10049000a1028800800478000000eb001f003700f4
:1004a000e284440054a0b4009905ba00e2844400f8
:1004b00054a0b4009906ba00e284440054a0b400e9
:1004c0000006eb00476fde00fd07b200ae018800ba
:1004d000636ce10003003a000ad801000000eb0061
:1004e0000e003700606ce10008003a00004deb00a0
:1004f0000a05e800020039003420ec000af0a000f0
:100500008b05e900f9ff3e00040037006168e10057
:10051000010032000086eb000b00070019c7ba008b
:100520001905ba000e04e00003003a000a00e000da
:10053000dbff3a0000000600fe07b200ae028800b2
:100540008a047800f5ff37000cd0a300e20f4d00bd
:100550001c003b0089027800354dba000a05e8000e
:10056000020039003420ec000af0a0008b05e900fd
:100570000f003200254dba000a05e80002003900dc
:100580003420ec000af0a0008b05e90008003200de
:100590000c00e0000600320015cdba000a05e800a4
:1005a000020039003420ec000af0a0008b05e900bd
:1005b0008984e80054a0b4000b00e000e2ff3a0098
:1005c000000006009902ba00055d78008b05e9007d
:1005d000f7ff3200c82ade00055d78008b05e900d0
:1005e000f3ff32000c00e000f1ff320019ddba0029
:1005f000eeff3700dc350400000000004429040051
:100600000000000062290400000000007a290400b4
:1006100000000000c829040000000000182a04009f
:1006200000000000742a0400000000001c2b0400dd
:10063000000000002c2b0400000000005c2b0400d4
:10064000000000006032040000000000b633040027
:1006500000000000263304000000000038330400ce
:100660000000000048330400000000005433040080
:10067000000000005e33040000000000123304009c
:10068000000000001c330400000000006a33040076
:10069000000000008833040000000000742b0400f8
:1006a00000000000942b040000000000aa2b0400ae
:1006b00000000000c82b040000000000de2b040036
:1006c00000000000f22b040000000000122c0400c7
:1006d00000000000342c0400000000003c2c04004a
:1006e00000000000442c0400000000006a2c0400fc
:1006f00000000000822c040000000000f42c040024
:10070000000000000a2d040000000000262d040057
:1007100000000000b82d0400000000009a2c040026
:1007200000000000861704000000000032120400e0
:1007300000000000220e0400000000003600f80057
:10074000809fbe00829fbe00849fbe00869fbe0029
:100750000000fa0004c8a900011180000008200070
:10076000008060000000e0000c00320020e2a900e0
:100770000000eb00d09788000000eb00e0978800b5
:100780000000eb00a09788000000eb00b097880005
:100790000000eb009097880001003700bc110700b3
:1007a0000080fa004f03be004f02be004f01be00a2
:1007b0004f00be003600f900004006003600f80089
:1007c000809fbe00829fbe00849fbe00869fbe00a9
:1007d0000000fa000000eb00d09788000000eb005a
:1007e000e09788000000eb00a09788000000eb0075
:1007f000b09788000000eb00909788002000200050
:10080000809788002142a900108180000000e0004c
:100810000200320010818000000001000828a900b9
:100820000080fa004f03be004f02be004f01be0021
:100830004f00be003600f900004006003600f80008
:10084000809fbe00829fbe00849fbe00869fbe0028
:100850000000fa00c068a90020002000301907003d
:100860000080fa004f03be004f02be004f01be00e1
:100870004f00be003600f900004006003600f800c8
:10088000809fbe00829fbe00849fbe00869fbe00e8
:100890000000fa00c608a900700020002019070017
:1008a0000080fa004f03be004f02be004f01be00a1
:1008b0004f00be003600f900004006003600f80088
:1008c000809fbe00829fbe00849fbe00869fbe00a8
:1008d0000000fa0020468000700060000000e00088
:1008e00003003200c488a900a00020000c190700f2
:1008f0002146800000022000008060000000e0002f
:1009000003003200c4a8a9009000200004190700c9
:100910002146800000102000008060000000e00000
:1009200003003200c508a900c0002000fc18070021
:100930002146800000202000008060000000e000d0
:1009400003003200c528a900d0002000f4180700d9
:1009500020468000610060000000e00003003200db
:10096000c408a900b0002000ed180700ffff370001
:100970003600f800809fbe00829fbe00849fbe00ac
:10098000869fbe000000fa00c028a9000000eb000e
:10099000e31807000080fa004f03be004f02be00bc
:1009a0004f01be004f00be003600f90000400600b7
:1009b0003600f800809fbe00829fbe00849fbe006c
:1009c000869fbe000000fa00c088a9003000200009
:1009d000d31807000080fa004f03be004f02be008c
:1009e0004f01be004f00be003600f9000040060077
:1009f0003600f800809fbe00829fbe00849fbe002c
:100a0000869fbe000000fa00cc180700c048a9006d
:100a100010002000c21807000080fa004f03be003b
:100a20004f02be004f01be004f00be003600f9006d
:100a3000004006003600f800809fbe00829fbe0086
:100a4000849fbe00869fbe000000fa0000818000e7
:100a50000000e00002003200008180000000010080
:100a600005a8a9000080fa004f03be004f02be0097
:100a70004f01be004f00be003600f90000400600e6
:100a80003600f800809fbe00829fbe00849fbe009b
:100a9000869fbe000000fa00308180000000010047
:100aa0000028a9000080fa004f03be004f02be00dc
:100ab0004f01be004f00be003600f90000400600a6
:100ac0000040da000000fe000a00fa0011002000d9
:100ad000b1bf9f00c0bf9f006a8057002b0a07006c
:100ae0004fb897000080fa00000006000a00fa00e4
:100af000e20f500034003e0010988000e10f5000db
:100b000003003200e20f500011003a000c003700e1
:100b1000832320000300e00001003a000040da00d7
:100b20003802e200020035004022ef0039e2a8005e
:100b300038a2ab000d003a0038a2a8000b00370025
:100b4000032620000300e00001003a000040da0024
:100b50006002e200020035006822ef0061e2a800b6
:100b600060a2ab0001003a0060a2a80082017800f8
:100b70000b0037003102fb00e10f500004003a0087
:100b80003e82ab00feff3a004412880003003700ab
:100b90006682ab00feff3a00841388008301e900ff
:100ba0000300e000f3ff3a00e10f500003003a00b9
:100bb0003ea2ab00feff32000b00370066a2ab0086
:100bc000feff32000800370033002000b3bf9f0053
:100bd000c0bf9f00d1bf9f00e2bf9f006a80570047
:100be000ec0907006fb99700020078000080fa0056
:100bf00000000600000005000001be001b00070009
:100c00000470a70003f0a10003f8a30013003a004a
:100c10006509b10010003200090035006928e100c3
:100c2000020035000100280000000500000040001f
:100c3000818048008502e900fcff3a0000000600c0
:100c4000f88f4200050035008100d1000080d300fc
:100c50008502e800fcff3a00000006008000eb007f
:100c6000000005006011b8007a033700c70ade00f3
:100c7000f107b200f50fb20008003200e1cf4200e8
:100c8000020032000170a00024000500810f7000f6
:100c9000010032000408050044000500810f7000c7
:100ca00002003a00140005008502e900000040003f
:100cb00081c04800fcff3b000170a000240005003b
:100cc0006022b800060220000000d0008180d2001f
:100cd0000482d2008582d2000000a00002025200ed
:100ce00083825a00030031000202420083824a00dc
:100cf0000000a1000603e900f3ff3a00000006002f
:100d000007f82700078361000638e10004003a0075
:100d1000f7072000878361008703710001003a0014
:100d200003f0a200889fbe008a9fbe008c9fbe0079
:100d3000470ade000480a100c71ade000580a1007a
:100d4000070028000785600087856100f70f2000f5
:100d50000720e1009e0032000728e1009c003200dd
:100d6000010678000400e000b4003200f70720001c
:100d7000878060000170a0000500e000c000320024
:100d8000f7072000878161000370a000050652006c
:100d90000f003a000b50e1000b0032000308e100a5
:100da00002003a000200e1007e003200020450001e
:100db00083845800040031000001fd008101fd0022
:100dc0008402fd008a05fd006044b8002100370060
:100dd0000520e10005003d000001fd008101fd004e
:100de0008402fd008a05fd00050652007a60e100dc
:100df000050035000170a1004722dd0084807000ed
:100e00008a807000630037006044b800ef0266001b
:100e100007ff2f00070666000500e000060034000b
:100e2000f08312008714dd000511de00071bdd00d2
:100e3000060171008519de007060e10005003500d3
:100e40000904780082047800030178008001eb0037
:100e5000700656000b50e10003003a00020040000b
:100e6000838048000400370060041400e0841c0004
:100e700002005800838058000188a3000600320059
:100e80008100d1000080d3008984d3000884d3007e
:100e90000402e800270037000178a30025003a008b
:100ea0000100e000030032008186cf006986560011
:100eb0000a0037008c0020000000e00004003a0027
:100ec00009007800880478000004eb0070025200ea
:100ed0008086cf000d0646000c06e9007060e10038
:100ee000060035008000780009007800880478004a
:100ef0000004eb0070065600700252000c00e00087
:100f00000c0034008c08dd00f00316000703de003f
:100f1000868070000c00dd00074bde0006007000cc
:100f20008c4cdd000743de00868474000c44dd0039
:100f30000c0252006120e1002000350061016000d8
:100f40000700280087816400f7ff2700878364007b
:100f5000070374000300e000060032008203730000
:100f6000040032000000e800e08048000188a3008f
:100f70000e003a00f70f20000720e1004a003d0074
:100f80000170a1004722dd00810072008a8070009c
:100f90000000be004f06be004f05be004f04be005d
:100fa000000006006000b800faff37008100d100a1
:100fb0000080d3000402e800eeff3700040178004f
:100fc00089017400a10107008a807000f1ff3700d9
:100fd000f7010700070278000001fd008101fd0014
:100fe000f301070087027800850372000778a300e9
:100ff000040032000001fd008101fd00060207002f
:10100000e4ff3700850362000768a3000800320090
:101010000b50e10003003200f0ff2f00f1ff27002a
:10102000dcff37000001fd008101fd00d9ff370022
:101030000468a300d7ff3200faff3700f8ff27004b
:10104000888360000b003a000000e00009003a00cd
:101050008303640082837300020032000200be003a
:10106000ccff37000b50e100ceff3a000200be007b
:10107000c8ff370014002000810064003eff3700e5
:10108000f8ff27008883610004003a000200e000b6
:1010900002003a008c007800beff370015002000e7
:1010a0008301640039ff370001f8270000002000a9
:1010b00081007500b7ff3700889fbe008a9fbe0081
:1010c0008c9fbe001b0020000202be000586680047
:1010d00006002800060666004709de00f20fb2008f
:1010e000820032000243e80080003200c729de009f
:1010f000f30fb2007d0032000343e8007b003200b2
:10110000f107b2000170a000f507b2000570a00061
:10111000c708dd004903de00868070004700dd005f
:10112000c72add004923de00868272004722dd00e7
:10113000030551000403500085835800030031006b
:1011400000004000818048000a05e9008c1f7800fb
:101150008a9fbe00040050008580580004024200af
:1011600085824a0000004000818048000005eb00b5
:101170000004be006033b8000406be000d48e10064
:1011800056003100050009004dccd8000c01b80014
:101190000d02b8008481410060824a0082835300be
:1011a00003045c0084845c0060055d000a00e000cc
:1011b00025003a00800578000d40e100490031002b
:1011c0008800780007007800050009004d88d800e5
:1011d0000c01b8000d02b8008481410060824a0011
:1011e0006003110083835b0004045c00e0845c0006
:1011f0000900e00021003a004f01be000300e000ba
:101200002b003200e3016000070673008c8171003f
:1012100001003200640070004200de004e5edd001e
:101220000c007000c258de0001e0a000830107003e
:10123000cf017800818071004f06be004f05be00cf
:101240004f04be00000006008c8343000d044c00d8
:10125000e0844c0060054d000000e9000a00e00059
:10126000d4ff32008c8343000d044c00e0844c001a
:1012700060054d000000e900ceff37000c0343007d
:101280008d834b0060044c00e0844c000000e900ba
:101290000900e000d8ff32000c0343008d834b00af
:1012a00060044c00e0844c000000e900d2ff3700ed
:1012b0004200de004e5edd000c007000c258de0011
:1012c00001e0a000cf0178000300e000daff320067
:1012d00060001000e0801800d7ff3700f0ff2f00fb
:1012e000aaff3700f0ff2f00b9ff37000404be004b
:1012f0002f010700870678000004fd008104fd002f
:101300002b010700078366000678a3000300320064
:101310000960a7000800be002c0037000d78a3006c
:10132000020032000800be00280037000778a30042
:1013300026003a0001f0a10009f0a1000668a30010
:1013400003003200f1ff2700f0ff2f00baff370043
:101350000d68a300030032000800be008c807000fe
:10136000b5ff37000768a30007003a000648a3004e
:1013700003003200f1ff2700f0ff2f00aeff37001f
:101380000d48a300030032006000b8008c8070009c
:10139000a9ff37000748a3000400320001f8270026
:1013a000000020008c807000a3ff3700760107004a
:1013b0000004fd008104fd000205780072010700b1
:1013c0000802be008a01780059ff37000160a000c2
:1013d000120220007281880097ff37000100e000b0
:1013e000120032000500e00010003200889fbe00ad
:1013f0008a9fbe008c9fbe000006eb0001f8a30090
:101400000300320060001000e08018000cf0a00023
:1014100005f8a3000300320060021200e0821a0007
:101420000cf0a2008005eb0041ff37006000b8001f
:10143000020005000383680007002800070363001b
:10144000470ade000480a100c71ade000580a10063
:10145000f70f20000720e100420032000728e100da
:1014600040003200889fbe008a9fbe008c1f78001b
:10147000f107b200f307b2000400e000640032009c
:101480000170a0000500e000680032000370a000b9
:1014900085054200eb07b1000204b8000302b80062
:1014a0008484440060854a00020ab80084844400b1
:1014b0000a854a00030ab800040545000400330009
:1014c0000804d0008984d2000a85d2008b05e90087
:1014d0006158e1003d003500021020000901610063
:1014e0000308200089816100f707200087836400da
:1014f00008867300c84cde00c853dd008784740082
:101500004855de000300e00006003200820376004a
:10151000040032008904e80060054d000a88a30039
:101520000c003a00f70f20000758e10044003d008e
:101530000a70a100c75ddd000a8575008a0073008e
:10154000090078004f0678004f05be004f04be002a
:10155000000006000a05d1008984d3008b05e8004d
:10156000f0ff3700881f780006047800900007001d
:10157000070278000001fd008101fd008c000700da
:1015800087027800850372000778a3000500320007
:101590000001fd008101fd009f0007004f0478005d
:1015a00000000600850372000748a3000300320014
:1015b000f0ff2f00f1ff2700f8ff370000002000a8
:1015c00001f8270088807000f4ff37008801780058
:1015d0004848dd00808171004848de00c850dd00c9
:1015e00001007000c850de00060478000b0178008e
:1015f0001600070088807000d2ff37000500e00069
:1016000005003200170020003a0007009dff370058
:1016100081037000f9ff3a00860078004f067800d9
:101620004f05be004f04be0000000500830371009b
:10163000f9ff3200270020002e00070094ff37003a
:1016400001f8270086807000f4ff37000100e000f9
:1016500026003200610111007810e10023003c00f7
:101660006022b8007010e1000400350080027800ac
:10167000010078008000eb00700151000200e000e2
:101680000900340070031100062add00822ade0002
:101690008603dd00878272000200de00860bdd001b
:1016a000070070008208de0084817100f4ff2700cb
:1016b0000482620084817100040028008482620038
:1016c0006102600005f0a6000000060004827100bf
:1016d000070032000000e800e0804800000006003b
:1016e0000002be006000b800efff37006000b800e5
:1016f00000000600889fbe000004eb006138e10096
:1017000016003a000100e00008003a00c800de00c0
:101710004800dd00880020000100e00003003a00de
:10172000c800de004800dd00680444008184cf006a
:10173000e9845400060034008908dd00f0831400b9
:101740008703de00878070000900dd000904440083
:10175000610214004f04be00000006000300e00018
:1017600008003a00c811de004811dd0088002000a2
:101770000300e00003003a00c811de004811dd005c
:10178000680444008384cf00e984540006003400d8
:101790008919dd00f08314008713de008781710052
:1017a0000911dd0009044400e1021400e9ff3700db
:1017b0002700200001f0a70017002000470bde00e3
:1017c000f60fb200040032000643e8000a003200bf
:1017d0004702b3000000060001037800f607b200dc
:1017e0000603700002003a000703b3000000060081
:1017f0008702b3000000060001037800f607b2007c
:1018000006037000020032000770a000000006000e
:101810000760a000000006000478a3000400320066
:101820000578a300030032000168a30001003a001c
:101830000200be000160a0000000060081017000ef
:10184000270032008002eb0001f8a3000300320001
:1018500060001000e080180015002000f407200050
:101860000202420020003400f703200087036000da
:10187000060420000003630002082000000161004c
:101880004700de00c909dd0000807100c708de00e6
:101890000600e000080032008703710006003200f5
:1018a0001000b0000180b0000188a30002003200e7
:1018b000c108de000402e800f107b200f30f2000c7
:1018c0000320e10003003d004722dd00810072009b
:1018d0002900370001f827000000eb002600370040
:1018e0006000b80000000600680212007f20e100de
:1018f000020034006000b8001f0037006011b8001b
:101900007020e100040035008001780001007800bb
:101910008000eb00700252000400e0000900340077
:10192000f00312000719dd008419de000703dd0053
:10193000868171000400de00070bdd0006007000e8
:101940008408de00f7ff27008383630087037100ac
:101950000600280003036300070032000700e000d0
:1019600003003a006101600002817300020032004e
:101970001000b0000180b0000500a60000000600c5
:1019800001f0a000000006004f0ade004709de005b
:10199000f107b200f20fb2000b003200f207b10003
:1019a0000170a000c708dd00c901de00838070005f
:1019b0004700dd000400a6000000060060001000e3
:1019c000e080180000000600810f700001003a005e
:1019d000000006008182cf000500e00010003e00fc
:1019e0008082cf00ee8242007028e10004003900be
:1019f00007003e00800078000000eb000e0037007a
:101a0000708312008600de000500dd000a0037004a
:101a1000708352008600dd000000eb0006003700f6
:101a2000e28252008508dd00708312000603de00aa
:101a3000868070000500dd007507b0000501ea0032
:101a40000400a6000000060060001000e0801800fe
:101a500000000600889fbe008a9fbe0000827000c2
:101a60000402710004827100260032000004be00ee
:101a70000200be006011b8006b0920009502200032
:101a80000182cf000a0039000541b1000082cf0079
:101a9000070039000541b1000982cf000400390078
:101aa0000541b1000882cf00010039000541b100b5
:101ab00005425200120032000a003b008281710090
:101ac000610164008100d1000080d3008984d300cb
:101ad0000884d3008b05e8000442e800f7ff3a00d1
:101ae000070037000804440089844c0000004800c7
:101af000818048008b05e9000442e900f9ff3a00c3
:101b0000030007004f05be004f04be0000000600a2
:101b100081002000618055000b003d000b0020007b
:101b200061fe2f000100e1001d0034008281710080
:101b3000610164008904d1000884d3000000e8003a
:101b4000faff3a0071002000610064000300700099
:101b5000020060000900320061044400e0844c008f
:101b60000988a500050032008b05e8006808e1003f
:101b700002003a008904d1000884d300f20f20004b
:101b80000258e10005003d00c75ddd00f907b20025
:101b90008980750008007800000006000bf8270017
:101ba0008b007800000005000000fa0068815700f3
:101bb000cfb89700809380001000780008020700db
:101bc0000080fa0000000600b60037000000fa00ae
:101bd00068815700cfb8970080938000100078008c
:101be000ff0107000080fa00000006001c0007004b
:101bf00075000700ab000700270107004f01070031
:101c000076020700210237000000fa0068815700c1
:101c1000cfb897008093800010007800f001070093
:101c20000080fa00000006000d00070066000700b3
:101c300019010700410107009a0007006702070029
:101c40001202370000000600602721000000060095
:101c5000fdff0700a0938800909388000000060015
:101c6000ec874700889fbe008a9fbe008c9fbe0005
:101c70008e1f780000067800010478001807900095
:101c80002805900098067800cdb79f00b805900011
:101c90003202be002203be000400be000601be00e8
:101ca0004f18de006011b8008000eb00d0b79f0035
:101cb000e1b79f00f2b79f0083bf9f0080047800c8
:101cc0000900e000060032006000b8006011b800b2
:101cd000040250008582580006035900878359008a
:101ce0000e00e000020035000d10a100cdb79f00ee
:101cf0000900e00005003a004fb097000028a3005b
:101d000002003a000038a300020032008a00e90015
:101d1000010037008a007800f8815700a2002000f7
:101d200008007800890007000900e00003003a007d
:101d3000cfb097000128a300080032000000e9009e
:101d400000814500b1c2b3000900e000010032008b
:101d5000d1c2b30001497800060037000138a30062
:101d6000040032000000e9008080450002c2b30098
:101d700082487800480190000201e900000151000a
:101d8000808045004fb297008a0178000c007800ef
:101d90005d0207009c0090000188a300040032004f
:101da00098009000810f500001003d000100780074
:101db0004f0778004f06be004f05be004f04be001f
:101dc000cf00b100000006000200fa00889fbe00ac
:101dd0008a9fbe0080057800010478000200780028
:101de000180190002805900098007800b1bf9f006e
:101df000b80490000200e000020035000110a100cc
:101e0000b1bf9f00ea815700820020008a0078005d
:101e10003002be002003be00080078004b0007001f
:101e20003fb99700f0006100040032000000e900b3
:101e30008080440002c3b300824878003fb9970015
:101e4000e8006100040032000000e90080804400e6
:101e500002c2b30082487800480190000201e90004
:101e600000015100808044003fba97008a01780049
:101e70000b007800240207009b0090000188a3005b
:101e80000400320098009000810f500001003d00d6
:101e9000010078004f05be004f04be000080fa002c
:101ea00000000600ea874700889fbe008a9fbe00a8
:101eb0008e1f7800000478000300780072875700b6
:101ec00084e2260055c72600049fbe00c396220068
:101ed000030f78006c875700004feb00110590004e
:101ee000a1049000910578000200e0000200320099
:101ef0000207780001003700728757000000e000f9
:101f000002003a000e007800cd0407000a00e0004d
:101f1000030035008a0f5000010036000a007800e7
:101f20000b02780089017800000178008e007800ab
:101f300008007800f40107004f0778004f05be0045
:101f40004f04be00af00b10000000600f487470058
:101f5000889fbe008a9fbe008c9fbe008e1f7800a7
:101f60000605be000404be0081bf9f0082b79f002b
:101f7000f3b79f00b0009000e1b79f001301780015
:101f800092b79f0090069000400090000000e9008a
:101f9000000678000d00e00001003d001d0020005b
:101fa000efb19700008041000048eb001e002000c8
:101fb0001f0037000c06e9000fb09700cf80de004d
:101fc0006109b900a0b79f00b1b79f00c2b79f00d9
:101fd000d3b79f000203be000002be000800be008f
:101fe0000a01be00b205070000077800efb09700b5
:101ff0000c80400003c3b300034847008d06e9008e
:102000000fb897000000e90080bf9f002fb2970033
:10201000bfb297004fb39700dfb397000800be0030
:102020000a01be009b0507000205be000004be00b9
:102030000c00e0000d003400e00f5400e08f5c0065
:10204000e00f5d00e08f5d00daff3a000d00e00078
:10205000d8ff3c008fb897000100e0000300340077
:102060001fb197000218a300d2ff3a000e00e00053
:1020700002003a00ffb197001340a1000c00780065
:102080004f0778004f06be004f05be004f04be004c
:102090004f01b100000006000200fa00889fbe0058
:1020a0008a9fbe00000578000104780002007800d5
:1020b00018019000a804900098007800b1bf9f001c
:1020c000b80590000200e000020035000110a100f8
:1020d000b1bf9f00ea815700a2002000890078006c
:1020e0003002be002003be000800780097ff070002
:1020f000480190000201e900000151008080450084
:102100003fba9700890178000a0078007e01070035
:102110009a0090000188a30004003200980090000b
:10212000810f500001003d00010078004f05be0006
:102130004f04be000080fa0000000600fa87470046
:10214000889fbe008a9fbe008c9fbe008e1f7800b5
:10215000800478000104780082057800180190005e
:102160002805900018077800b80090000200e000f1
:10217000020035000e10a1000100370012002000ff
:1021800070006700e0b79f00090032003b02be000c
:102190002b03be00e00f5200e08f5a00e00f5b00ff
:1021a000e08f5b00020032008a86e9000100370000
:1021b0008a067800e8026700f5b79f000100320048
:1021c0008d06e9003b02be002b03be00e4af9f007a
:1021d000f5af9f0086b79f0097b79f004806900015
:1021e0000c06e9000c8040000048eb00efb29700bd
:1021f0007fb297008903780081047800d8af9f00f0
:10220000020478008bbf9f008a05780003457800a0
:102210002b0037000c06e9006fab97006f006300de
:10222000e90f500002003c000003b000010037003d
:102230007005b0000a03fb001604b100f90f53004b
:102240000c003e00000378000650a0001606b10006
:10225000f90f530007003e00b4b79f00a5b79f00d9
:10226000c7b79f001f040700cfb39700afb2970016
:102270003fb297000c834400004b78000804e9004b
:102280008d06e9006fa89700ffa897000fb197008f
:102290009fb19700460020008301d1000281d30046
:1022a0008180d3000080d3000603e900faff3a00e2
:1022b000e0af9f00f1af9f0082b79f0093b79f00f0
:1022c000e10f56000f0034006fa89700ffa8970099
:1022d0000fb197009fb19700e00f5000e08f5800ba
:1022e000e00f5900e08f5900caff3a000800e000f3
:1022f000c8ff3c000d00e000020034000e18a300ef
:10230000c4ff3a0089007800f4b79f008704780082
:102310005fac97008a4178000b0578008fbd97006d
:102320000500e000120032003b02be002b03be009d
:10233000e4af9f00f5af9f0086b79f0097b79f005f
:10234000e00f5200e08f5a00e00f5b00e08f5b006f
:10235000070032000c06e9000c80400003487800ba
:102360000c06e9000c80400002c3b300024878006c
:10237000ffb297000500e000040032000c06e900ff
:102380000c80400002c2b30002487800480190006f
:102390000201e9000c0151008c8040000e0278001f
:1023a0008a01780009007800d700070099009000a2
:1023b0000188a3000400320098009000810f5000b3
:1023c00001003d00010078004f0778004f06be0075
:1023d0004f05be004f04be00af01b1000000060073
:1023e0000200fa00881f780000047800e2bf9f0016
:1023f000648157000800780085020700980090006b
:102400000148a300010032000080eb004f04780077
:102410000080fa0000000600889fbe0000047800db
:102420004800900082047800808f5400010036003c
:102430008004780009017800580090001503070017
:10244000580090000900400050049800c800900017
:1024500089845000490498000048eb004f04be00f6
:102460000000060010007800a0f9370090019000ed
:102470000388a30001003200e7ff37000348a300f0
:1024800001003a00f7ff0700000006008408200062
:10249000848f50001d0032000d003c001408200005
:1024a000848f50002700320002003c000408200006
:1024b0000400370024082000848f500034003200cc
:1024c00044082000848f500043003a003600370053
:1024d000040a2000848f50002700320004003c00d2
:1024e00004092000848f50003b003a002800370088
:1024f000020c2000828f50002f003200020f2000bb
:10250000828f500034003a002b0037009380e9009e
:102510000200e00005003200810978001102fb0092
:10252000cfa2de00612bb9002800370081097800b6
:10253000114278000482fb008002eb006033b80097
:102540002200370013027800e40052000200e0008d
:1025500005003200810978001102be004fabde0099
:102560008603780019003700810978001102be0047
:102570006033b800150037009380e90081097800c6
:1025800011027800cfa2de00612bb9000f003700e6
:1025900093027800e8805200810978003102be0081
:1025a0002103be00090037009380e9000200e0002b
:1025b00002003200f1ff37009380e90081097800c2
:1025c000110278008002eb006033b8000498be006e
:1025d0000690be0010000500000005004408200021
:1025e000848f50002500320008003c0014082000b1
:1025f000848f50001400320024082000848f500083
:1026000024003200040820000c00370004092000d8
:10261000848f50001f00320004003c00840820001a
:10262000848f500024003a000e003700040a200076
:10263000848f500011003200040c2000848f500061
:102640001d003a000d0037009380e90081097800f1
:102650009100780001087800cf91de008288be00ea
:10266000140037009380e900810978009100780018
:1026700001087800824878000e0037009380e90056
:1026800081097800910078000108780082087800bc
:10269000080037009380e9008109780091007800f4
:1026a000010878006112b900612bb9008498be005e
:1026b0008690be001000050000000500889fbe0047
:1026c000000478004800900082047800808f540055
:1026d000010036008004780009017800580090005d
:1026e0006c02070058009000090040005004980058
:1026f000c800900089845000490498000048eb000d
:102700004f04be0000000600f2874700889fbe000d
:102710008a9fbe008c9fbe008e1f780080047800c8
:1027200001057800020478008305780061076200e3
:1027300002003a008b0f54000800390008017800ad
:102740008a0078000900780048ff07008b0f5400ca
:1027500002003900880578001e0037000886550001
:102760000c017800f00f5600010036000201200035
:10277000010220007e8057004d0207008c06780081
:102780000500370002012000fe8057000900780094
:1027900036ff0700f0865600ef8f5600f9ff3e0027
:1027a0004461de0000ff2f008091b9000c01410060
:1027b000fe805700090078002cff07000e00e000a3
:1027c00004003a00080178008a00780009007800c7
:1027d00026ff07000b0078004f0778004f06be0069
:1027e0004f05be004f04be002f01b10000000600df
:1027f0000000050000000500000005000001780051
:102800000040eb008080fb0081804000a32d210070
:1028100081814100134278000404e00004003a0082
:10282000b02d21008100400011407800000006001a
:1028300092017800934f520005003a00b02d21001c
:1028400081004000114078000309e80001003700d2
:102850000040e800ea4f5000eaff360000000600a2
:10286000f6874700889fbe008a9fbe008c9fbe00ef
:102870008e1f780000057800010478008305780039
:10288000040678000000eb00c0b79f008080eb00da
:10289000d1b79f00e0b79f00f2b79f00000820006b
:1028a00080bf9f0098007800010078008004eb0052
:1028b000010037008904e800304178000204e0009c
:1028c0000300320053c2b300834f5100f9ff3a00b6
:1028d0000900e00004003200090178000a007800d5
:1028e000e2fe0700188c44001807780050c2b300bd
:1028f0009e4f10003f013a000e07e8000e0c7800d2
:1029000010003700cfb097000100a0000b00370087
:10291000cfb097000110a00008003700cfb097009b
:102920000120a00005003700cfb097000130a000c3
:1029300002003700cfb097000140a000c1b79f0050
:10294000000ce8001800780090407800b2c2b30094
:1029500082cf5000f1ff320007003c0002c2b300fa
:1029600082cf5000f0ff320032c2b30082cf50005d
:1029700007003a00efff3700d2c2b30082cf500009
:10298000e0ff320002c3b30082cf5000e0ff32000c
:10299000a2c2b30082cf50000d003a00000ce80044
:1029a0001c80e900000e780010007800e0b79f005e
:1029b0000000e0000f003d00cfb097000100a20032
:1029c000c1b79f000000ea00e0b79f000900370090
:1029d00084010700e0b79f0001003700000ce80009
:1029e000180078009000fb000103b100e98f50004f
:1029f000faff36004fb097000008a3000200320033
:102a00000010a100c0b79f0018007800e1c2b30019
:102a100090cf100016003a008000eb00d1b79f0065
:102a20000000e800000c7800a1c2b30090cf1000b5
:102a300006003a00000ce8001c80e900000e780057
:102a400010007800d0b79f0009003700650107002b
:102a5000d0b79f0001003700000ce8001800780094
:102a60009000fb000103b100e98f5000faff36002f
:102a70000800780061ff07008046780018007800a1
:102a80001000fb001002070091062000810f50008b
:102a90003800320012003c0041062000810f500037
:102aa000340032000a003c0011062000810f500063
:102ab0002000320031062000810f5000a0003200bb
:102ac00051022000810f5000bc003a00b4003700d2
:102ad00071062000810f5000b8003c0088003700cc
:102ae00001072000810f50005c00320007003c000d
:102af000e1062000810f50007a003200f10620002c
:102b0000810f5000ad003a00390037005107200016
:102b1000810f50002700320081072000810f5000f4
:102b20004200320031072000810f5000a3003a001c
:102b30008f0037008d80fb000c01780000fe2f0015
:102b40000f004000f20107000000e000a800320082
:102b500018007800000ce8009041780002fe2f0079
:102b60000f014100f88057000a00780021ff07009c
:102b70000e0037008d80fb008c01780012002000d1
:102b800000fe2f000f00400040fe07000000e000a4
:102b900097003200180ce80002fe2f000f014100e0
:102ba000f88057000a0078002dfc0700808444005c
:102bb000900037008d80fb008c0178000001eb0055
:102bc00000fe2f000f00400030fe07000000e00074
:102bd00087003200180ce80002fe2f000f014100b0
:102be000f88057000a0078002bfd0700efff370040
:102bf0008d80fb008c0178000001eb0000fe2f00af
:102c00000f00400021fe07000000e00078003200c5
:102c1000180ce80002fe2f000f014100f880570059
:102c20000a00780068fc0700e0ff37008d80fb0099
:102c30008c0178000001eb0000fe2f000f00400027
:102c400012fe07000000e000690032001800780062
:102c5000000ce800904178001c0037008c017800df
:102c60000001eb00010f200000fe2f000f004000cc
:102c700006fe07000000e0005d003200180ce800ce
:102c80000fb097009fb097002fb19700bfb197008a
:102c9000e00f5000e08f5800e00f5900e08f59001e
:102ca00009003a00cfb597006fb49700202d21009e
:102cb000630107000b0278008801780000017800aa
:102cc000212d21004700370083c7b30002fe2f00eb
:102cd0000f014100f88057000a00780017fd070037
:102ce000b2ff37000b8144008d80fb008c0178001f
:102cf00000fe2f000f00400038fe07003c003700a8
:102d00008d80fb000c01780000fe2f000f004000ba
:102d10007f0107000000e000350032001800780055
:102d2000000ce8009041780002fe2f000f014100e6
:102d3000f88057000a007800aefe07009bff3700be
:102d400000c8b30080cf560029003a00180ce800f4
:102d50001c80e900000e780010407800e0df9f0042
:102d600013002000e2fd2f000f0141000800370092
:102d700000c8b30080cf56001d003a00180ce800d0
:102d80001c80e900000e78008001eb001001780043
:102d9000f88057000a00780042fc070083ff3700e4
:102da00000c8b30080cf560011003a00180ce800ac
:102db0004fb29700efb19700080037000e0c780073
:102dc0000000eb00c0b79f00e0b79f000080eb0061
:102dd000d0b79f000002eb008401780012002000b1
:102de000812d21000a00780047fe07006fff3700a1
:102df000180ce800090078004f0778004f06be0065
:102e00004f05be004f04be006f01b1000000060078
:102e10008200fa00889fbe008a1f780000057800b3
:102e200082047800c13f9f000004eb0010003700cf
:102e30000902780088017800a2f72f000f014100f5
:102e400081f72f008f8040000a00780084fe070081
:102e500008004000880f500004003d00b00420002e
:102e6000009888000084eb0004003700000478001c
:102e70004f3897001004e000edff3a00080078009a
:102e80004f0578004f04be000080fa0000000600e5
:102e9000889fbe000004be000000eb000800e000b8
:102ea00018003200180090000058a3000d003200f6
:102eb000d800900068009000808f50000900360014
:102ec000b80990000001eb0082007800080078004b
:102ed00003000100d80090000080eb000100e0003a
:102ee000080032000000eb00200c980060049800fd
:102ef000500498000900e000020032001800780039
:102f0000f1f607004f04be0000000600889fbe00d7
:102f10000004be000000eb000800e00025003200c5
:102f2000180090000058a30011003200d800900053
:102f300068009000808f500009003600b8099000aa
:102f40000001eb0082007800080078000300010017
:102f5000d80090000080eb000100e0001500320076
:102f60000000eb00200c98006004980050049800ca
:102f7000780a900008109000800f5200060031007f
:102f80000002520011002000cfa2de00612bb90028
:102f900018007800390007000000eb0000149800ca
:102fa000700c98000900e000020032001800780060
:102fb000c5f607004f04be00000006008000780040
:102fc0001000200002022000828f50000400320016
:102fd000e9805000e48f5000010036000000eb0053
:102fe00000000600889fbe008a1f78000005780058
:102ff0000a047800984478000805e8000900fb00fe
:10300000eeff07000000e000f9ff3a00b0c2b30095
:1030100080cf540005003200d0c2b3008000eb0026
:1030200080cf540005003a00020037008000eb001a
:1030300001003700110020000804e8000000eb0048
:1030400003003700ea00b900020050000003b0009e
:103050003801fb0003fd2f0082814100e98f510000
:10306000f8ff36000100e00001003a000000ea002d
:103070004f0578004f04be0000000600a0fd2f00a1
:10308000f1ff2f00860007004f89de0082017800e3
:10309000000006008001780002003700b159780076
:1030a0000201e9000200e000fcff3a000000060017
:1030b000889fbe008a9fbe00800478000200e00066
:1030c0005b00320001407800814c7800828144002e
:1030d000f1f99f00e20f510055003600914498002d
:1030e000a1449800e1f99f00d1f99f00e60f51003b
:1030f0004f003600b1449800c1f99f00e80f51001d
:103100004b0036000905ea00630565000a844400a7
:103110000a055100c1ff2f00010565000080fb007a
:103120008000eb001210200013102000ba000700ee
:10313000008cbe000a01440060b99f0071b99f0075
:10314000e80f55003a00360020049800310498003a
:10315000400498005104980020b99f0031b99f00a5
:1031600040b99f0051b99f00f80f5500300036005c
:103170006004980071049800000c9800110c9800ed
:10318000200c9800310c9800400c9800510c9800cd
:1031900020b19f0031b19f0040b19f0051b19f000d
:1031a00060b19f0071b19f0000b99f0011b99f00ed
:1031b00064016400780141000204440002055500e6
:1031c0006011b8000203be000002be000403be008e
:1031d0006022b8000000720081807200020173005a
:1031e0008381730010003700009cbe000294be0073
:1031f00040049800510498006204980073049800f9
:10320000000c9800110c9800220c9800330c9800c8
:10321000400c9800510c9800620c9800730c9800b8
:103220000a02b1000802b000ff0f5500eeff3e0099
:10323000090078004f05be004f04be0000000600e4
:1032400080007800040037003104e00002003a00fa
:103250000000510000000600010178000108a300f1
:10326000f9ff3a008101780031017800f4ef2f0076
:10327000020242000281ea00020162000408280002
:1032800004016100f7ff320083007800010178003b
:103290003104e000fdff3a0000005100000006008c
:1032a00002002f00f3ff2f00820f5000838f580081
:1032b000040036000000ea00009888000080eb005f
:1032c0008080eb0000000600f1fb2f0080804000b2
:1032d000f98f500001003e000050a00000000600e1
:1032e000f9ff3700f1f92f0080804000f98f50007e
:1032f00001003e00f005b20000000600f9ff3700b3
:103300000000060052fa0700fdff0700fcff37002f
:10331000881f78000004780000082000808f50008b
:103320001700350010082000808f50000b0034007b
:1033300030082000808f500011003a009200780081
:1033400068805000000978003002be002003be00f3
:10335000049cbe000694be0007003700920278006d
:1033600064805200000978001000be000b000700c6
:10337000009cbe000294be00100020000100370037
:103380000000eb004f0478000000060000c0da00e7
:103390000000060000c0da0000000600810378008b
:1033a00032f607000001be006000b8000478a300f8
:1033b00013003a006220e10015003e000d003900c4
:1033c0008301d1000281d3008180d3008301d10029
:1033d0000281d3008180d3008301d1000281d30018
:1033e0008180d3000538b000c42add00f300b200ac
:1033f0008381720007f0a70003f0a0000000060020
:1034000083ff2700020020006110b900f9ff370098
:1034100003ff2700f7ff3700020ab900001bb900bd
:103420000200b80081004200810043000000060055
:10343000889fbe008a9fbe0030044200b0844a00cc
:1034400030054b0090854b006000b1000898be002d
:103450000a90be000440e10005c8e10006d0e1008a
:1034600007d8e10002003100680040001008e800c1
:103470004f05be004f04be0000000600889fbe003e
:103480008a9fbe003004be002005be000418540010
:1034900005985c0006185d0007985d00110020008b
:1034a0000440e10005c8e10006d0e10007d8e100d2
:1034b000010039008000eb00108810004f05be00ad
:1034c0004f04be00000006001200fa00889fbe00f4
:1034d0008a9fbe008c9fbe00e0b79f00f1b79f009f
:1034e00082bf9f0093bf9f000605be000404be007c
:1034f0000000eb00d0b79f00c0b79f00b0b79f009f
:10350000a0b79f0090b79f00000678005fb19700ba
:10351000cfb09700820141003fb097000200e00069
:1035200004003d00370007007e805700c0ff070001
:1035300003003700330007007e805700cfff0700ed
:10354000dfb697000d00e0000c0035006fb2970069
:10355000ffb297000fbb97009fbb970010002000a1
:10356000010020006011b800000272008182720028
:1035700002037300838373001b0007000c06e8003e
:1035800001042000810f5600e0ff3a000d00e0002a
:1035900004003d000802be000a03be007e80570002
:1035a000a3ff07005fa897000000e00005003a00b5
:1035b0001fb29700afb297003fb39700cfb3970009
:1035c000090007006fb09700ffb097000fb9970090
:1035d0009fb997004f06be004f05be004f04be00c6
:1035e0000080fa000000060001000700000006004d
:1035f000a4b79f00b5b79f00c6b79f00d7b79f007d
:10360000000006004f09de0082817100b3b79f0001
:103610004f01de008180400082807000a1b79f00d2
:103620008fb097004f09de000000400002007000dc
:1036300090b79f007fa897004f01de008180400077
:103640008280700081b79f000d0007004f3ade00b6
:103650000000400004007000f0af9f000800070069
:103660000402420085824a0006034b0087834b0018
:10367000dfff07000802be000a03be0000000600cc
:103680002fb29700bfb297004fb39700dfb39700f8
:1036900000000600881f780018002000881f7800ae
:1036a00089ff07008f87e9004f04780000000600bb
:1036b000801feb0084ff07008f87e90000000600f1
:1036c000889fbe008a9fbe00e00f5000e08f580028
:1036d000e00f5900e08f59000c003d006044b80035
:1036e0006055b8000000540081805c0002015d005c
:1036f00083815d00180020001500070008003d00d0
:10370000180007000004eb00050037000004eb0080
:103710000f00070002003d00120007001800200003
:10372000dcff07000800e000060032006022b8005d
:103730006033b8000000520081805a0002015b0033
:1037400083815b004f05be004f04be0000000600f1
:10375000e00f5200e08f5a00e00f5b00e08f5b004b
:10376000000006006044b8006055b8000402540030
:1037700085825c0006035d0087835d000000060013
:10378000889fbe008a9fbe008c1f7800e00f50000b
:10379000e08f5800e00f5900e08f59000d003d0008
:1037a0006044b8006055b8000000540081805c009f
:1037b00002015d0083815d001c0020000820e10003
:1037c00009a8e1000ab0e1000bb8e1000d003d00de
:1037d000080037000006eb00e00f5200e08f5a00af
:1037e000e00f5b00e08f5b0006003d006044b80026
:1037f0006055b8000402540085825c0006035d0039
:1038000087835d00aaff07000c00e000060032007d
:103810006022b8006033b8000000520081805a0076
:1038200002015b0083815b004f0678004f05be00fc
:083830004f04be000000060079
:020000040000fa
:103838000a0d000000250000732000003078000009
:1038480025320000582000003d200000307800009c
:1038580025320000582000000a0d00000041000039
:103868004c4d0000304800004f5500005220000029
:103878003a2000003078000025320000582000006f
:103888000a0d00000052000054430000484f000099
:1038980055520000203a0000203000007825000032
:1038a80032580000200a00000d000000436f00009d
:1038b800756e0000742000005265000073740000eb
:1038c800203a000020250000642000000a0d0000b6
:1038d800002f00002a2a00002a2a00002a2a0000b5
:1038e8002a2a000020490000737300007565000053
:1038f8002044000065740000656300007420000027
:103908002a2a00002a2a00002a2a00002a2a00005f
:103918002f2000000a0d0000005700007269000007
:1039280074650000204100004c4d00003048000044
:103938004f550000522000000a0d00000052000000
:10394800656700006973000074650000722000005c
:103958003a2000003078000025320000582000008e
:103968007c200000436f00006d6d0000616e000058
:10397800642000003a200000307800002532000062
:10398800582000000a0d000000570000726900006e
:1039980074650000204100004c4d000030570000c5
:1039a8004b44000041590000200a00000d000000af
:1039b8002a2a00002a2a00002a2a00002a2a0000af
:1039c8002a2a00002a2a00002a2a00002a2a00009f
:1039d800204100004c4d0000304900004620000006
:1039e8003d200000312000002a2a00002a2a000079
:1039f8002a2a00002a2a00002a2a00002a2a00006f
:103a08002a2a00002a2a00000a0d0000002a0000c5
:103a18002a2a00002a2a00002a2a00002a2a00004e
:103a28002a2a00002a2a00002a2a00002a20000048
:103a3800414c00004d30000049460000203d000088
:103a480020300000202a00002a2a00002a2a00002c
:103a58002a2a00002a2a00002a2a00002a2a00000e
:103a68002a2a00002a0a00000d000000742b00001a
:103a7800942b0000aa2b0000c82b0000de2b0000ae
:103a8800f22b0000122c0000342c00003c2c00000b
:103a98000000000000000000442c00006a2c000018
:103aa800822c0000f42c00000a2d0000262d0000b6
:103ab800b82d00009a2c0000000000000000000053
:103ac80000000000000000000000000000000000ee
:103ad8000a0d0000204900006e64000065780000af
:103ae800203a000020250000642000000a0d000094
:103af800000a00000d2000004d4300005037000070
:103b08003934000031300000204900006e6900009f
:103b1800746900006e6100006c2000000a0d00004e
:103b28000000000044290000622900007a290000f2
:103b3800c8290000182a0000742a00001c2b000065
:103b48002c2b00005c2b0000000000002633000036
:103b58003833000048330000543300005e3300005f
:103b6800123300001c3300006a3300008833000061
:043b78000000000049
:020000040000fa
:103b7c000200fa000040eb00004f78001670ef00d6
:103b8c001670a8000040eb00004f78000000000009
:103b9c001e80fb00f200b9008000780000032100b9
:103bac00008040002200200080007800f0062000f9
:103bbc00cd0507000004a2000004e000f4ff3a0069
:103bcc005704070030c0b300004f7800000000001d
:103bdc001e80fb00f200b900800078000003210079
:103bec00008040008000e8001e80fb00f201b9005c
:103bfc000003210000004100140020008101780026
:103c0c001200200080007800f00620000506070056
:103c1c000004a2000004e000edff3a00400407009d
:103c2c00d0c0b300004f7800000000001e80fb00e5
:103c3c00f200b900800078000003210000804000f1
:103c4c002200200080007800f0062000a605070066
:103c5c000004a2000004e000f4ff3a003004070066
:103c6c00000000001e80fb00f200b900800078000c
:103c7c0000032100008040008000e8001e80fb0053
:103c8c00f201b900000321000000410014002000e3
:103c9c00810178001200200080007800f0062000de
:103cac00e00507000004a2000004e000edff3a006c
:103cbc001b040700a0c0b300004f780000000000f8
:103ccc001e80fb00f200b900800078000003210088
:103cdc00008040002200200080007800f0062000c8
:103cec00810507000004a2000004e000f4ff3a0084
:103cfc000b040700000000001e80fb00f200b9005e
:103d0c008000780000032100008040008000e80063
:103d1c001e80fb00f201b9000003210000004100ed
:103d2c00140020008101780012002000800078002f
:103d3c00f0062000bb0507000004a2000004e00010
:103d4c00edff3a00f6030700b0c0b300004f780057
:103d5c00000000001e80fb00f200b900800078001b
:103d6c000003210000804000220020008000780029
:103d7c00f00620005c0507000004a2000004e0002f
:103d8c00f4ff3a00e6030700000000001e80fb0071
:103d9c00f200b90080007800000321000080400090
:103dac008000e8001e80fb00f201b9000003210036
:103dbc000000410014002000810178001200200056
:103dcc0080007800f0062000960507000004a20091
:103ddc000004e000edff3a00d1030700c0c0b300bf
:103dec00004f7800000000001e80fb00f200b900bc
:103dfc008000780000032100008040002200200099
:103e0c0080007800f0062000370507000004a200af
:103e1c000004e000f4ff3a00c103070000000000ba
:103e2c001e80fb00f200b900800078000003210026
:103e3c00008040008000e8001e80fb00f201b90009
:103e4c0000032100000041001400200081017800d3
:103e5c001200200080007800f00620007105070099
:103e6c000004a2000004e000edff3a00ac030700e0
:103e7c0070c0b300004f7800000000001e80fb00f3
:103e8c00f200b9008000780000032100008040009f
:103e9c002200200080007800f006200012050700a8
:103eac000004a2000004e000f4ff3a009c030700a9
:103ebc00000000001e80fb00f200b90080007800ba
:103ecc0000032100008040008000e8001e80fb0001
:103edc00f201b90000032100000041001400200091
:103eec00810178001200200080007800f00620008c
:103efc004c0507000004a2000004e000edff3a00ae
:103f0c008703070060c0b300004f7800000000007a
:103f1c001e80fb00f200b900800078000003210035
:103f2c00008040002200200080007800f006200075
:103f3c00ed0407000004a2000004e000f4ff3a00c6
:103f4c0077030700000000001e80fb00f200b900a0
:103f5c008000780000032100008040008000e80011
:103f6c001e80fb00f201b90000032100000041009b
:103f7c0014002000810178001200200080007800dd
:103f8c00f0062000270507000004a2000004e00052
:103f9c00edff3a006203070050c0b300004f7800f9
:103fac00000000001e80fb00f200b90080007800c9
:103fbc0000032100008040002200200080007800d7
:103fcc00f0062000c80407000004a2000004e00072
:103fdc00f4ff3a0052030700000000001e80fb00b3
:103fec00f200b9008000780000032100008040003e
:103ffc008000e8001e80fb00f201b90000032100e4
:10400c000000410014002000810178001200200003
:10401c0080007800f0062000020507000004a200d2
:10402c000004e000edff3a003d03070040c0b30080
:10403c00004f7800000000001e80fb00f200b90069
:10404c008000780000032100008040002200200046
:10405c0080007800f0062000a30407000004a200f2
:10406c000004e000f4ff3a002d03070000000000fc
:10407c001e80fb00f200b9008000780000032100d4
:10408c00008040008000e8001e80fb00f201b900b7
:10409c000003210000004100140020008101780081
:1040ac001200200080007800f0062000dd040700dc
:1040bc000004a2000004e000edff3a001803070022
:1040cc0020c0b300004f7800000000001e80fb00f1
:1040dc00f200b9008000780000032100008040004d
:1040ec002200200080007800f00620007e040700eb
:1040fc000004a2000004e000f4ff3a0008030700eb
:10410c00000000001e80fb00f200b9008000780067
:10411c0000032100008040008000e8001e80fb00ae
:10412c00f201b9000003210000004100140020003e
:10413c00810178001200200080007800f006200039
:10414c00b80407000004a2000004e000edff3a00f0
:10415c00f302070010c0b300004f7800000000000d
:10416c001e80fb00f200b9008000780000032100e3
:10417c00008040002200200080007800f006200023
:10418c00590407000004a2000004e000f4ff3a0008
:10419c00e3020700000000001e80fb00f200b900e3
:1041ac008000780000032100008040008000e800bf
:1041bc001e80fb00f201b900000321000000410049
:1041cc00140020008101780012002000800078008b
:1041dc00f0062000930407000004a2000004e00095
:1041ec00edff3a00ce02070030c0b300004f78005c
:1041fc001e80fb0011032100f200b900008040007a
:10420c00a1c0b30001487800000000001e80fb0034
:10421c00f200b9008000780000032100008040000b
:10422c002200200080007800f00620002e040700f9
:10423c000004a2000004e000f4ff3a00b8020700fa
:10424c00000000001e80fb00f200b9008000780026
:10425c0000032100008040008000e8001e80fb006d
:10426c00f201b900000321000000410014002000fd
:10427c00810178001200200080007800f0062000f8
:10428c00680407000004a2000004e000edff3a00ff
:10429c00a30207000040eb00004f78000000000074
:1042ac001e80fb00f200b9008000780000032100a2
:1042bc00008040008000e8001e80fb00f201b90085
:1042cc00000321000000410014002000810178004f
:1042dc001200200080007800f00620005104070036
:1042ec000004a2000004e000edff3a008c0207007d
:1042fc001e80fb0011032100f200b9000080400079
:10430c0001cbb3000148780000000000010321003c
:10431c001e80fb00f200b90000804000220020004b
:10432c0080007800f0062000ef0307000004a200d4
:10433c000004e000f5ff3a00790207001610a8000f
:10434c00c0c12900801f78001df607008f87e90087
:10435c000040eb00004f78001e0037001e80fb0071
:10436c00f200b900110321000080400010407800d9
:10437c000081fb001e80fb00f200b900010321004c
:10438c0000804000104078008080fb001e80fb0005
:10439c00f200b9008081e800000321000080410098
:1043ac00821f7800811f7800801f7800f0c12900df
:1043bc00801f780002f60700e88757000000000015
:1043cc00150507000004a2000004e000fcff3a0001
:1043dc001e4fe8001e407800ed4f5000dfff360006
:1043ec000080fa00000006000000fa000000000047
:1043fc001400200073062100120020006106210029
:10440c00f0062000070407000004a2000004e000ee
:10441c00f7ff3a00420207007006210010407800b6
:10442c000080fb004400de00004078000080fb00b0
:10443c0090808800908080000000e0000e00320028
:10444c0070062100a1c0b3000148780000000000f4
:10445c00000321006003b0002200200080007800df
:10446c00f0062000a00307000004a2000004e000f6
:10447c00f7ff3a002a0207001003210001c8b3001d
:10448c0001487800000000000003210022002000f9
:10449c0080007800f0062000930307000004a200bf
:1044ac000004e000f8ff3a001d0207000080fa004b
:1044bc00000006000000fa000000000014002000bc
:1044cc00931021001200200081102100f006200022
:1044dc00d40307000004a2000004e000f7ff3a0038
:1044ec000f02070090102100104078000080fb00a4
:1044fc00801f780030c32900801f7800b0f50700ba
:10450c00e487570000000000140020005305210030
:10451c001200200041052100f0062000c103070015
:10452c000004a2000004e000f7ff3a00fc010700c1
:10453c0050052100104078000080fb00801f78009f
:10454c0070c42900801f78009df50700e487570090
:10455c005005210090407800901021001040780008
:10456c0080cf50000a003a00c08080000000e800b4
:10457c00c0808800c0808000801f7800a0c5290002
:10458c00801f78008ef50700e48757000500370080
:10459c001650a800d0c62900801f780088f50700a7
:1045ac008f87e900c0808000e30f500001003600c7
:1045bc000000fe0090102100104078000080fb00ed
:1045cc009080880016d0bf00684060000004e000b6
:1045dc00030032001230ef001670a9001f003700e4
:1045ec00908080000000e00003003a0030022000c0
:1045fc00908088001900370091808000000f200007
:10460c00008060004400de00708088009080800094
:10461c006f00600080808800808080000000e000d7
:10462c0006003a00708080000000e900708088006d
:10463c00900020008080880003003700808080007c
:10464c000000e9008080880070808000c400dd00dc
:10465c008080800001007000908088009080800035
:10466c0080407800901021000148780010c9290082
:10467c00801f780052f507008f87e9009010210009
:10468c00104078008080fb008010210010407800e2
:10469c000080fb00811f7800801f780030ca290041
:1046ac00801f780046f50700e687570000000000e1
:1046bc0000032100800db000220020008000780053
:1046cc00f0062000080307000004a2000004e0002c
:1046dc00f7ff3a00920107000000000014002000d0
:1046ec00b311210012002000a1112100f0062000be
:1046fc004c0307000004a2000004e000f7ff3a009e
:10470c0087010700b011210010407800804078002c
:10471c000134a100b01121000148780090cc29008f
:10472c00801f780026f507008f87e900b011210063
:10473c00104078008080fb00a01121001040780010
:10474c000080fb00811f7800801f780030ca290090
:10475c00801f78001af50700e6875700000000005c
:10476c0000032100a00eb000220020008000780081
:10477c00f0062000dc0207000004a2000004e000a8
:10478c00f7ff3a00660107000080fa0000000600ff
:10479c000200fa000040eb00004f7800d0c0b300dc
:1047ac00004f7800000000001e80fb00f200b900f2
:1047bc008000780000152100008040008000e80097
:1047cc001e80fb00f201b900001521000000410021
:1047dc001400200081017800120020008000780075
:1047ec00f00620000f0307000004a2000004e00004
:1047fc00edff3a004a01070030c0b300004f7800cb
:10480c00000000001e80fb00f200b9008000780060
:10481c0000152100008040008000e8001e80fb0095
:10482c00f201b90000152100000041001400200025
:10483c00810178001200200080007800f006200032
:10484c00f80207000004a2000004e000edff3a00ab
:10485c003301070000000000011521001e80fb0041
:10486c00f200b90000804000220020008000780097
:10487c00f00620009c0207000004e000f6ff3a005e
:10488c00270107000040eb00004f780000000000fb
:10489c001e80fb00f200b90080007800001521009a
:1048ac00008040008000e8001e80fb00f201b9008f
:1048bc000015210000004100140020008101780047
:1048cc001200200080007800f0062000d5020700be
:1048dc000004a2000004e000edff3a001001070004
:1048ec0010c0b300004f7800000000001e80fb00d9
:1048fc00f200b90080007800001521000080400013
:10490c008000e8001e80fb00f201b90000152100b8
:10491c0000004100140020008101780012002000ea
:10492c0080007800f0062000be0207000004a20000
:10493c000004e000edff3a00f900070020c0b300ce
:10494c00004f7800000000001e80fb00f200b90050
:10495c008000780000152100008040008000e800f5
:10496c001e80fb00f201b90000152100000041007f
:10497c0014002000810178001200200080007800d3
:10498c00f0062000a70207000004a2000004e000cb
:10499c00edff3a00e200070040c0b300004f780082
:1049ac00000000001e80fb00f200b90080007800bf
:1049bc0000152100008040008000e8001e80fb00f4
:1049cc00f201b90000152100000041001400200084
:1049dc00810178001200200080007800f006200091
:1049ec00900207000004a2000004e000edff3a0072
:1049fc00cb00070050c0b300004f7800000000004f
:104a0c001e80fb00f200b900800078000015210028
:104a1c00008040008000e8001e80fb00f201b9001d
:104a2c0000152100000041001400200081017800d5
:104a3c001200200080007800f006200079020700a8
:104a4c000004a2000004e000edff3a00b4000700ef
:104a5c0060c0b300004f7800000000001e80fb0017
:104a6c00f200b900800078000015210000804000a1
:104a7c008000e8001e80fb00f201b9000015210047
:104a8c000000410014002000810178001200200079
:104a9c0080007800f0062000620207000004a200eb
:104aac000004e000edff3a009d00070070c0b30069
:104abc00004f7800000000001e80fb00f200b900df
:104acc008000780000152100008040008000e80084
:104adc001e80fb00f201b90000152100000041000e
:104aec001400200081017800120020008000780062
:104afc00f00620004b0207000004a2000004e000b6
:104b0c00edff3a008600070080c0b300004f78002c
:104b1c00000000001e80fb00f200b900800078004d
:104b2c0000152100008040008000e8001e80fb0082
:104b3c00f201b90000152100000041001400200012
:104b4c00810178001200200080007800f00620001f
:104b5c00340207000004a2000004e000edff3a005c
:104b6c006f000700c0c0b300004f780000000000c9
:104b7c001e80fb00f200b9008000780000152100b7
:104b8c00008040008000e8001e80fb00f201b900ac
:104b9c000015210000004100140020008101780064
:104bac001200200080007800f00620001d02070093
:104bbc000004a2000004e000edff3a0058000700da
:104bcc00b0c0b300004f7800000000001e80fb0056
:104bdc00f200b90080007800001521000080400030
:104bec008000e8001e80fb00f201b90000152100d6
:104bfc000000410014002000810178001200200008
:104c0c0080007800f0062000060207000004a200d5
:104c1c000004e000edff3a0041000700a0c0b30023
:104c2c00004f7800000000001e80fb00f200b9006d
:104c3c008000780000152100008040008000e80012
:104c4c001e80fb00f201b90000152100000041009c
:104c5c0014002000810178001200200080007800f0
:104c6c00f0062000ef0107000004a2000004e000a1
:104c7c00edff3a002a000700c0c12900801f780010
:104c8c00cff307008f87e9000040eb00004f78005e
:104c9c001e0037001e80fb00f200b9001115210028
:104cac0000804000104078000081fb001e80fb005b
:104cbc00f200b9000115210000804000104078007e
:104ccc008080fb001e80fb00f200b9008081e800b0
:104cdc000015210000804100821f7800811f7800a0
:104cec00801f7800f0c12900801f7800b4f3070002
:104cfc00e887570000000000c70207000004a2006c
:104d0c000004e000fcff3a001e4fe8001e40780053
:104d1c00ed4f5000dfff36000080fa000000060067
:104d2c000000fa000000000016d0bf0062406000d6
:104d3c000004e000fcff32001630a900a0002000a7
:104d4c009e0707000080fa00000006000600fa002b
:104d5c0010079800414798004e4090000004e00076
:104d6c00020032000040eb000100370010c0b3001d
:104d7c00004f78009e009000f0072000808f5000bc
:104d8c000f003e001e0090000040780000404000e4
:104d9c00804078001e40780080c07000902f210069
:104dac0001487800f02f2100ce4090000148780097
:104dbc00e02f21008040eb00014878001400370000
:104dcc001e0090004700de0000407800e6406000c6
:104ddc001e40780080c0700000cfb30080c070000f
:104dec00802f2100014878001e0090008040780040
:104dfc00902f210001487800e02f210011c0b30052
:104e0c0001487800f02f2100ce4090000148780036
:104e1c000080fa00000006000000fa00011180007a
:104e2c0000082000008060000000e000010032005b
:104e3c0020e2a9000080fa00000006000000fa0041
:104e4c000111800000042000008060000000e000e0
:104e5c000100320020c2a9000080fa000000060008
:104e6c000000fa000111800000402000008060006a
:104e7c000000e000010032002142a9000080fa008d
:104e8c00000006000000fa00909780008000eb0004
:104e9c009200200003002000820f5000838f5800e6
:104eac00e2003e0000060100090037000800370050
:104ebc00470037002c0037001900370099003700e5
:104ecc0052003700a6003700c3003700c600370079
:104edc00a09780000000e00006003a00b097800028
:104eec000000e000d3003200809780000000e0005a
:104efc00d2003a00e02f2100104078000004e000be
:104f0c000300320040002000909788000200370018
:104f1c0020002000909788001c02a800ce003700cb
:104f2c0000118000610060000000e000c5003a0044
:104f3c00802f2100104078000080fb008011880039
:104f4c00f02f2100104078000004e0000300320034
:104f5c003000200090978800bf00370050002000e0
:104f6c0090978800bc0037000111800000002800d9
:104f7c00008060000000e0000f003a00902f21003c
:104f8c00104078000080fb0080118800f02f210079
:104f9c00104078000004a2000004e000030032007e
:104fac005000200090978800ab0037006000200074
:104fbc0090978800a80037001c42a8001000200021
:104fcc00809788009000200090978800a2003700fe
:104fdc00902f2100104078000080fb008011880089
:104fec00f02f2100104078000004a2000004e00023
:104ffc000300320050002000909788009600370084
:10500c006000200090978800930037000111800009
:10501c0000002800008060000000e0003b003a0027
:10502c00a09780000000e000120032000011800008
:10503c00610060000000e00084003a00d09780001e
:10504c000000e00007003200d0978000104078008c
:10505c000080fb0080118800d09780000000e800e1
:10506c00d0978800a09780000000e900a0978800e6
:10507c0079003700b09780000000e0001d0032007e
:10508c001c22a800e02f2100104078000004e00052
:10509c000c003200802f21001040780080407800f6
:1050ac000104a000802f210001487800f02f21007e
:1050bc008040eb0001487800400020009097880069
:1050cc0065003700902f2100104078008040780058
:1050dc000104a000902f210001487800f02f21003e
:1050ec008040eb0001487800200020009097880059
:1050fc00590037001c42a8009000200090978800af
:10510c000000eb0080978800530037001c42a80079
:10511c001000200080978800900020009097880055
:10512c004d00370001118000000028000080600055
:10513c000000e00004003a001c62a800700020008f
:10514c0090978800440037001c42a80010002000f3
:10515c008097880090002000909788003e003700d0
:10516c0000118000620060000000e0003900320095
:10517c00e09780000000e00007003200e09780001c
:10518c00a11180008140780001487800e0978000f0
:10519c000000e800e0978800b09780000000e9006c
:1051ac00b0978800b09780000000e0000500320046
:1051bc001ca2a9001c82a8008000200090978800e7
:1051cc00250037001ca2a8001c82a800900020001b
:1051dc0090978800200037001c62a8007000200007
:1051ec00909788001c00370000118000640060005c
:1051fc000000e0000500320000118000700060002b
:10520c000000e00001003a001c42a8001081800060
:10521c000000e0000200320010818000000001005c
:10522c000000eb00909788000b0037000000000096
:10523c0009003700000000000700370000000000e4
:10524c0005003700000000000300370000000000dc
:10525c0001003700000000000080fa00000006008a
:10526c000000fa0004c8a90024c8a8000828a90056
:10527c002828a8000080fa00000006000000fa00b0
:10528c00c01e20006011880000202800e01088005b
:10529c002022ef00c05d2300040107000000eb009a
:1052ac00909788000000eb0080978800ecff0700c7
:1052bc000080fa00000006000000fa001de2a900c0
:1052cc0004c8a90024c8a9000828a9002828a900f6
:1052dc002c22ef0000002100e01088002022ef00bb
:1052ec000080fa00000006000800fa001007980081
:1052fc00210798003207980010c0b300004f7800c7
:10530c00909780000000e00019003a002e009000f9
:10531c000000e000160032003e0090000000e000ab
:10532c00130032009e009000f03f2000808f500050
:10533c000f003e0011c0b3001e00900083fe07005a
:10534c00ae009000d1978800be009000a197880015
:10535c000000eb00e09788000000eb00b09788009d
:10536c00adfe0700befe070004c8a800020037000f
:10537c000040eb00004f78001e4078000080fa00df
:10538c00000006000800fa0010079800210798009a
:10539c003207980010c0b300004f7800909780003f
:1053ac000000e0001a003a002e0090000000e0001f
:1053bc00170032003e0090000000e00014003200a4
:1053cc009e009000f03f2000808f500010003e00a7
:1053dc008040eb001e0090005cfe0700ae009000c9
:1053ec00e1978800be009000b19788000000eb00a8
:1053fc00d09788000000eb00a097880086fe07007d
:10540c008efe070096fe070004c8a80002003700b5
:10541c000040eb00004f78001e4078000080fa003e
:10542c00000006000c00fa001007980021079800f5
:10543c0032079800430798005407980010c0b30037
